:020000040800F2
:10000000002000204D040008D1010008DD01000897
:10001000E5010008ED010008F501000800000000FE
:10002000000000000000000000000000FD010008CA
:100030000902000800000000150200082102000863
:10004000910400089104000891040008910400083C
:10005000910400089104000891040008910400082C
:10006000910400089104000891040008910400081C
:10007000910400089104000891040008910400080C
:100080009104000891040008910400080000000099
:1000900000000000000000000000000091040008C3
:1000A00091040008910400089104000891040008DC
:1000B00091040008910400089104000891040008CC
:1000C00091040008910400089104000891040008BC
:1000D00091040008910400089104000891040008AC
:1000E0009104000891040008910400080000000039
:1000F0000000000000000000000000000000000000
:1001000000000000000000000000000000000000EF
:1001100000000000000000009104000891040008A5
:1001200000000000000000000000000000000000CF
:1001300000000000000000000000000000000000BF
:1001400000000000000000000000000000000000AF
:10015000000000000000000000000000000000009F
:10016000000000000000000000000000000000008F
:10017000000000000000000000000000000000007F
:10018000000000000000000000000000000000006F
:10019000000000000000000000000000000000005F
:1001A000000000000000000000000000000000004F
:1001B000000000000000000000000000000000003F
:1001C0000000000000000000000000005FF808F1DF
:1001D00080B400AFBD465DF8047B704780B400AFCB
:1001E000FEE700BF80B400AFFEE700BF80B400AF01
:1001F000FEE700BF80B400AFFEE700BF80B400AFF1
:10020000BD465DF8047B704780B400AFBD465DF825
:10021000047B704780B400AFBD465DF8047B704737
:1002200080B400AFBD465DF8047B704780B500AF79
:10023000164A164B1B6843F0010313601349134B16
:100240005A68134B13404B60104A104B1B6823F045
:10025000847323F4803313600C4A0C4B1B6823F423
:1002600080231360094A094B5B6823F4FE03536043
:10027000064B4FF41F029A60044B0022DA6200F032
:1002800075F8044B4FF000629A6080BD0010024088
:100290000000FFF800ED00E080B485B000AF00235F
:1002A000FB600023BB6000237B6000233B602A4B84
:1002B0005B6803F00C03FB60FB68042B07D0082B82
:1002C00009D0002B2FD1254B254A1A602FE0234B54
:1002D000234A1A602BE0204B5B6803F47013BB6069
:1002E0001D4B5B6803F480337B60BB689B0C02335F
:1002F000BB607B68002B06D1BB681A4A02FB03F384
:10030000164A136013E0144BDB6A03F00F0301334A
:100310003B60134A3B68B2FBF3F3BA6802FB03F39A
:100320000E4A136003E00D4B0D4A1A6000BF0A4BE2
:100330005B6803F0F0031B090B4AD35CDBB2FB6084
:10034000064B1A68FB6822FA03F3044A1360143759
:10035000BD465DF8047B704700100240000000209D
:1003600000127A0000093D000400002080B500AFB3
:1003700000F002F880BD00BF80B483B000AF00235E
:100380007B6000233B60304A2F4B1B6843F4803373
:1003900013602D4B1B6803F400333B607B68013313
:1003A0007B603B68002B03D17B68B3F5A06FF0D175
:1003B000254B1B6803F40033002B02D001233B6064
:1003C00001E000233B603B68012B37D11E4A1E4BE6
:1003D0005B6853601C4A1C4B5B6853601A4A1A4B9B
:1003E0005B685360184A184B5B6823F47C135360B6
:1003F000154A154B5B6843F498135360124A124B2D
:100400001B6843F08073136000BF0F4B1B6803F041
:100410000073002BF9D00C4A0B4B5B6823F00303ED
:100420005360094A084B5B6843F00203536000BF06
:10043000054B5B6803F00C03082BF9D10C37BD4664
:100440005DF8047B704700BF00100240002103E00C
:100450000A4B5B584350043109480A4B42189A42F0
:10046000F6D3094A02E0002342F8043B074B9A42C4
:10047000F9D3FFF7DBFE00F043F9704724070008CB
:1004800000000020140000201400002014000020B0
:10049000FEE7000080B485B000AF78600023FB6009
:1004A00002E0FB680133FB60FA687B689A42F8D38C
:1004B0001437BD465DF8047B704700BF80B400AFC1
:1004C0000A4A0A4B9B6943F010039361084A084BA0
:1004D0005B6823F00C035360054A054B5B6843F0EF
:1004E00002035360BD465DF8047B70470010024074
:1004F0000010014080B400AF044A044B1B6943F470
:1005000080731361BD465DF8047B704700100140A5
:1005100080B400AF044A044B5B6943F480735361B9
:10052000BD465DF8047B70470010014080B400AF09
:100530000D4A0D4B9B6943F0040393610B4A0B4B2F
:100540001B6823F003031360084A084B1B6823F061
:100550000C031360054A054B1B6843F00803136046
:10056000BD465DF8047B7047001002400008014062
:1005700080B400AF334A334B9B6943F0040393616B
:10058000314A314B5B6843F0300353602E4A2E4BA7
:100590005B6823F0C00353602B4A2B4B5B6843F02E
:1005A00080035360284A284B5B6823F440735360F0
:1005B000254A254B5B6823F440635360224A224B53
:1005C0005B6843F4806353601E4A1E4B9B6943F48F
:1005D000804343F0040393611C4A1C4B9B899BB2EC
:1005E00043F400539BB29381184A184B9B899BB2EA
:1005F00023F480539BB29381144A144B1B8A9BB201
:1006000023F440539BB21382104A104B9B8A9BB237
:1006100023F080039BB293820C4A0D4B1B680D495B
:10062000A1FB03131B0C9BB21381084A074B9B8948
:100630009BB243F008039BB29381BD465DF8047BF7
:10064000704700BF00100240000801400038014020
:1006500000000020C5B3A29180B483B000AF034670
:10066000FB7100BF0B4B1B889BB203F08003002B78
:10067000F8D0084BFA7992B29A8000BF054B1B88DC
:100680009BB203F04003002BF8D00C37BD465DF859
:10069000047B70470038014080B582B000AF7860BD
:1006A00007E07B681B781846FFF7D6FF7B680133AD
:1006B0007B607B681B78002BF3D10837BD4680BD7B
:1006C00080B582B000AFFFF7F9FEFFF72FFFFFF70D
:1006D0004FFF094B9B6803F001037B607B68002B95
:1006E00002D1FFF707FF05E0FFF712FF034B1846A3
:1006F000FFF7D2FFEDE700BF000801401007000838
:1007000080B500AFFFF7DCFF0023184680BD00BFB7
:1007100048656C6C6F20576F726C64210D0A000085
:0407200010070008B6
:1007240000366E0100000000000000000102030416
:0407340006070809A3
:0400000508000000EF
:00000001FF
