:020000040800F2
:10000000002000202D020008710200087102000883
:10001000710200087102000871020008000000006F
:100020000000000000000000000000007102000855
:10003000710200080000000071020008710200084F
:1000400071020008710200087102000871020008C4
:1000500071020008710200087102000871020008B4
:1000600071020008710200087102000871020008A4
:100070007102000871020008710200087102000894
:1000800071020008710200087102000800000000FF
:1000900000000000000000000000000071020008E5
:1000A0007102000871020008710200087102000864
:1000B0007102000871020008710200087102000854
:1000C0007102000871020008710200087102000844
:1000D0007102000871020008710200087102000834
:1000E000710200087102000871020008000000009F
:1000F0000000000000000000000000000000000000
:1001000000000000000000000000000000000000EF
:1001100000000000000000007102000871020008E9
:1001200000000000000000000000000000000000CF
:1001300000000000000000000000000000000000BF
:1001400000000000000000000000000000000000AF
:10015000000000000000000000000000000000009F
:10016000000000000000000000000000000000008F
:10017000000000000000000000000000000000007F
:10018000000000000000000000000000000000006F
:10019000000000000000000000000000000000005F
:1001A000000000000000000000000000000000004F
:1001B000000000000000000000000000000000003F
:1001C0000000000000000000000000005FF808F1DF
:1001D00010B5054C237833B9044B13B10448AFF381
:1001E00000800123237010BDD4080020000000000F
:1001F00098760008084B10B51BB108480849AFF3C2
:1002000000800848036803B910BD074B002BFBD0E2
:10021000BDE81040184700BF0000000098760008B5
:10022000D8080020D008002000000000002103E0D2
:100230000A4B5B584350043109480A4B42189A4212
:10024000F6D3094A02E0002342F8043B074B9A42E6
:10025000F9D300F09DFF01F0B1FD7047A0760008D2
:1002600000000020D4080020D40800202C09002021
:10027000FEE7000080B582B000AF78607B682F4A4F
:10028000934208D10420012100F0A2FE04200021A5
:1002900000F09EFE4EE07B68294A934208D1082078
:1002A000012100F095FE0820002100F091FE41E0C0
:1002B0007B68244A934208D11020012100F088FE77
:1002C0001020002100F084FE34E07B681E4A934237
:1002D00008D12020012100F07BFE2020002100F029
:1002E00077FE27E07B68194A934208D1402001211C
:1002F00000F06EFE4020002100F06AFE1AE07B68EC
:10030000134A934208D18020012100F061FE802031
:10031000002100F05DFE0DE07B680E4A934209D19A
:100320004FF48070012100F053FE4FF480700021E3
:1003300000F04EFE0837BD4680BD00BF00080140FA
:10034000000C014000100140001401400018014061
:10035000001C01400020014080B500AF01200121B8
:1003600000F036FE0120002100F032FE80BD00BF0B
:1003700080B489B000AF786039600023FB6100234E
:100380003B610023BB610023FB6000237B610023F2
:10039000BB603B68DB7803F00F03FB613B68DB78F5
:1003A00003F01003002B05D03B689B781A46FB69CD
:1003B0001343FB613B681B88DBB2002B44D07B6896
:1003C0001B687B610023BB6138E0BB69012202FA34
:1003D00003F3FB603B681B881A46FB6813403B61D4
:1003E0003A69FB689A4226D1BB699B00FB60FB68B7
:1003F0000F2202FA03F3BB60BB68DB437A69134048
:100400007B61FB68FA6902FA03F37A6913437B6143
:100410003B68DB78282B05D1BB6901229A407B68B9
:100420005A6108E03B68DB78482B04D1BB690122A4
:100430009A407B681A61BB690133BB61BB69072BBA
:10044000C3D97B687A691A603B681B88FF2B4AD93D
:100450007B685B687B610023BB613EE0BB6908335E
:100460001A4601239340FB603B681B881A46FB68D1
:1004700013403B613A69FB689A422BD1BB699B00F0
:10048000FB60FB680F2202FA03F3BB60BB68DB432F
:100490007A6913407B61FB68FA6902FA03F37A69AF
:1004A00013437B613B68DB78282B07D1BB6908339A
:1004B0001A46012303FA02F27B685A613B68DB7833
:1004C000482B07D1BB6908331A46012303FA02F20D
:1004D0007B681A61BB690133BB61BB69072BBDD95E
:1004E0007B687A695A602437BD465DF8047B7047A3
:1004F00080B483B000AF78607B684FF6FF721A80DB
:100500007B6802229A707B680422DA700C37BD4641
:100510005DF8047B704700BF80B485B000AF7860A1
:100520000B467B800023FB737B689A687B881340B3
:10053000002B02D00123FB7301E00023FB73FB7B44
:1005400018461437BD465DF8047B704780B483B00D
:1005500000AF78607B689B689BB218460C37BD463D
:100560005DF8047B704700BF80B485B000AF786051
:100570000B467B800023FB737B68DA687B88134023
:10058000002B02D00123FB7301E00023FB73FB7BF4
:1005900018461437BD465DF8047B704780B483B0BD
:1005A00000AF78607B68DB689BB218460C37BD46AD
:1005B0005DF8047B704700BF80B483B000AF786003
:1005C0000B467B807A887B681A610C37BD465DF8E4
:1005D000047B704780B483B000AF78600B467B80AB
:1005E0007A887B685A610C37BD465DF8047B70479A
:1005F00080B483B000AF78600B467B8013467B707D
:100600007B78002B03D07A887B681A6102E07A88B5
:100610007B685A610C37BD465DF8047B704700BFAC
:1006200080B483B000AF78600B467B807A887B68AB
:10063000DA600C37BD465DF8047B704780B485B046
:1006400000AF78600B467B804FF48033FB607B8883
:10065000FA681343FB607B68FA689A617A887B6862
:100660009A617B68FA689A617B689B69FB607B682A
:100670009B69FB601437BD465DF8047B704700BF83
:1006800080B485B000AF03460A46FB711346BB71C8
:100690000023FB600C4B1B68FB60FA684FF680730D
:1006A0001340FB60FB791B01FA681343FB60BB79C5
:1006B000FA681343FB60044AFB6813601437BD46B5
:1006C0005DF8047B704700BF0000014080B483B038
:1006D00000AF0346FB71044AFB7913600C37BD463B
:1006E0005DF8047B704700BF1C00204280B487B0D7
:1006F00000AF78600B46FB7000233B610023FB607A
:1007000000237B610023BB607B68002B03DA2E4B48
:10071000DB697B6102E02C4B5B687B617B6803F4E7
:1007200070231B0CBB607B689BB23B617B6803F44E
:100730004013B3F5401F0AD17B6923F070637B61DE
:10074000214A214B5B6823F07063536021E07B6892
:1007500003F48013002B0ED0BB68032202FA03F3CC
:10076000FB60FB68DB437A6913407B617B6943F084
:1007700070637B610DE07B685B0D1B011A463B6972
:100780009340DB437A6913407B617B6943F070637C
:100790007B61FB78002B08D07B685B0D1B011A4640
:1007A0003B6993407A6913437B617B68002B03DAD2
:1007B000054A7B69D36102E0034A7B6953601C37B9
:1007C000BD465DF8047B70470000014090B484B0E2
:1007D00000AF03460A46FB711346BB710023FB6062
:1007E000BB7903F003039B000F2202FA03F3FB60C3
:1007F0001649BB799B08DBB21846144ABB799B08A3
:10080000DBB2023352F82320FB68DB431A40831C1F
:1008100041F823200D48BB799B08DBB21C460B4AEC
:10082000BB799B08DBB2023352F82320F979BB79FC
:1008300003F003039B0001FA03F31A43A31C40F8DF
:1008400023201037BD4690BC704700BF0000014018
:1008500080B483B000AF7860034A7B6813600C37C4
:10086000BD465DF8047B7047DC00204280B485B053
:1008700000AF78600B4B1B68002B02D1094B0A4A72
:100880001A60084B1B68FB60064B1A687B681344B0
:10089000044A1360FB6818461437BD465DF8047BB4
:1008A000704700BFF00800202C09002080B483B0FE
:1008B00000AF786039604FF0FF3318460C37BD4603
:1008C0005DF8047B704700BF80B483B000AF7860F0
:1008D0004FF0FF3318460C37BD465DF8047B704778
:1008E00080B483B000AF786039603B684FF4005249
:1008F0005A60002318460C37BD465DF8047B7047EC
:1009000080B483B000AF7860012318460C37BD4631
:100910005DF8047B704700BF80B485B000AFF8601D
:10092000B9607A60002318461437BD465DF8047B31
:10093000704700BF80B485B000AFF860B9607A60DE
:100940007B6818461437BD465DF8047B704700BFCE
:1009500080B485B000AFF860B9607A607B681846F3
:100960001437BD465DF8047B704700BF80B400AF0C
:10097000FEE700BF80B400AF154A154B1B6843F07B
:10098000010313601249124B5A68124B13404B601B
:100990000F4A0F4B1B6823F0847323F480331360DA
:1009A0000B4A0B4B1B6823F480231360084A084B47
:1009B0005B6823F4FE035360054B4FF41F029A60FB
:1009C000034B0022DA62BD465DF8047B704700BF2E
:1009D000001002400000FFF880B483B000AF7860E0
:1009E000134A134B1B6823F480331360104A104BD7
:1009F0001B6823F4802313607B68B3F5803F03D02A
:100A0000B3F5802F07D00DE0094A094B1B6843F46A
:100A10008033136006E0064A054B1B6843F4A023AD
:100A2000136000BF0C37BD465DF8047B704700BF04
:100A30000010024080B582B000AF00233B6000236D
:100A4000FB710023BB71312000F02EFB0346BB710C
:100A50003B6801333B603B68B3F5A06F02D0BB79C4
:100A6000002BF0D0312000F01FFB0346002B02D0FA
:100A70000123FB7101E00023FB71FB791846083765
:100A8000BD4680BD80B485B000AF0346FB71002336
:100A9000FB600A4B1B68FB60FB6823F0F803FB60FC
:100AA000FB79DB00FA681343FB60044AFB681360C0
:100AB0001437BD465DF8047B704700BF001002404C
:100AC00080B483B000AF0346FB71044AFB79136026
:100AD0000C37BD465DF8047B704700BF0000424202
:100AE00080B485B000AF786039600023FB600A4BAA
:100AF0005B68FB60FB6823F47413FB607A683B68F7
:100B00001343FA681343FB60034AFB6853601437CE
:100B1000BD465DF8047B70470010024080B483B08E
:100B200000AF0346FB71044AFB7913600C37BD46E6
:100B30005DF8047B704700BF6000424280B485B01E
:100B400000AF786039600023FB600B4BDB6AFB6011
:100B5000FB6823F4803323F00F03FB607A683B6863
:100B60001343FA681343FB60034AFB68D3621437EC
:100B7000BD465DF8047B70470010024080B485B02C
:100B800000AF78600023FB60094B5B68FB60FB688B
:100B900023F00303FB60FA687B681343FB60044A9D
:100BA000FB6853601437BD465DF8047B704700BF97
:100BB0000010024080B400AF054B5B68DBB203F06D
:100BC0000C03DBB21846BD465DF8047B704700BFDE
:100BD0000010024080B485B000AF78600023FB6055
:100BE000094B5B68FB60FB6823F0F003FB60FA686D
:100BF0007B681343FB60044AFB6853601437BD46AF
:100C00005DF8047B704700BF0010024080B485B0DF
:100C100000AF78600023FB60094B5B68FB60FB68FA
:100C200023F4E063FB60FA687B681343FB60044ACB
:100C3000FB6853601437BD465DF8047B704700BF06
:100C40000010024080B485B000AF78600023FB60E4
:100C5000094B5B68FB60FB6823F46053FB607B68B7
:100C6000DB00FA681343FB60034AFB6853601437E8
:100C7000BD465DF8047B70470010024080B483B02D
:100C800000AF03460A46FB711346BB71BB79002BCC
:100C900008D00C490B4B1B78DAB2FB791343DBB25B
:100CA0000B7009E00749074B1B78DAB2FB79DB438D
:100CB000DBB21340DBB20B700C37BD465DF8047B32
:100CC000704700BF0910024080B483B000AF786065
:100CD000034A7B6813600C37BD465DF8047B7047A0
:100CE000D800424280B485B000AF78600023FB603A
:100CF000094B5B68FB60FB6823F44043FB60FA68C8
:100D00007B681343FB60044AFB6853601437BD469D
:100D10005DF8047B704700BF0010024080B483B0D0
:100D200000AF0346FB710C4B00221A700A4B0022E5
:100D30001A70FB79012B02D0042B04D007E0064B7C
:100D400001221A7003E0044B05221A7000BF0C3711
:100D5000BD465DF8047B70472010024080B483B02C
:100D600000AF0346FB71044AFB7913600C37BD46A4
:100D70005DF8047B704700BF8004424280B483B0BA
:100D800000AF78600549054B1A6A7B6813430B6214
:100D90000C37BD465DF8047B704700BF0010024071
:100DA00080B483B000AF0346FB71044AFB79136043
:100DB0000C37BD465DF8047B704700BF3C044242DF
:100DC00080B489B000AF78600023FB610023BB6171
:100DD00000237B6100233B610023FB604A4B5B687F
:100DE00003F00C03FB61FB69042B07D0082B09D02F
:100DF000002B2FD17B68454A1A602FE07B68434A5D
:100E00001A602BE0404B5B6803F47013BB613E4BF0
:100E10005B6803F480337B61BB699B0C0233BB616D
:100E20007B69002B06D1BB69394A02FB03F27B6860
:100E30001A6013E0344BDB6A03F00F030133FB60ED
:100E4000324AFB68B2FBF3F3BA6902FB03F27B6838
:100E50001A6003E07B682D4A1A6000BF2A4B5B686A
:100E600003F0F003FB61FB691B09FB61294AFB6985
:100E700013441B78DBB23B617B681A683B69DA403C
:100E80007B685A60204B5B6803F4E063FB61FB699D
:100E90001B0AFB611F4AFB6913441B78DBB23B61F1
:100EA0007B685A683B69DA407B689A60164B5B68DE
:100EB00003F46053FB61FB69DB0AFB61154AFB69C4
:100EC00013441B78DBB23B617B685A683B69DA40AC
:100ED0007B68DA600C4B5B6803F44043FB61FB69A1
:100EE0009B0BFB610C4AFB6913441B78DBB23B6133
:100EF0007B68DA683B69B2FBF3F27B681A612437DE
:100F0000BD465DF8047B70470010024000127A0075
:100F100000093D00000000201000002080B483B0D4
:100F200000AF78600B46FB70FB78002B06D00949B8
:100F3000084B5A697B6813434B6106E00549054B32
:100F40005A697B68DB4313404B610C37BD465DF843
:100F5000047B70470010024080B483B000AF78601B
:100F60000B46FB70FB78002B06D00949084B9A69A9
:100F70007B6813438B6106E00549054B9A697B68E2
:100F8000DB4313408B610C37BD465DF8047B704733
:100F90000010024080B483B000AF78600B46FB7055
:100FA000FB78002B06D00949084BDA697B681343AC
:100FB000CB6106E00549054BDA697B68DB431340EA
:100FC000CB610C37BD465DF8047B704700100240D2
:100FD00080B483B000AF78600B46FB70FB78002BC9
:100FE00006D00949084BDA687B681343CB6006E0FA
:100FF0000549054BDA687B68DB431340CB600C374F
:10100000BD465DF8047B70470010024080B483B099
:1010100000AF78600B46FB70FB78002B06D00949C7
:10102000084B1A697B6813430B6106E00549054BC1
:101030001A697B68DB4313400B610C37BD465DF8D2
:10104000047B70470010024080B483B000AF0346B9
:10105000FB71044AFB7913600C37BD465DF8047BD5
:10106000704700BF4004424280B483B000AF0346E3
:10107000FB71044AFB7913600C37BD465DF8047BB5
:10108000704700BF4C00424280B483B000AF0346BB
:10109000FB71044AFB7913700C37BD465DF8047B85
:1010A000704700BF0710024080B487B000AF03460E
:1010B000FB710023FB6000237B610023FB74FB7941
:1010C0005B09DBB2FB60FB68012B03D1124B1B6891
:1010D0007B6109E0FB68022B03D10F4B1B6A7B612C
:1010E00002E00D4B5B6A7B61FB7903F01F03FB6041
:1010F000FB687A6922FA03F303F00103002B02D0A4
:101100000123FB7401E00023FB74FB7C18461C37B1
:10111000BD465DF8047B70470010024080B400AF0C
:10112000044A044B5B6A43F080735362BD465DF82A
:10113000047B70470010024080B485B000AF0346C6
:10114000FB710023FB73094B9A68FB791340002B5A
:1011500002D00123FB7301E00023FB73FB7B1846E5
:101160001437BD465DF8047B704700BF0010024095
:1011700080B483B000AF0346FB71044AFB7913705F
:101180000C37BD465DF8047B704700BF0A10024073
:1011900080B500AF164A164B1B6843F0010313607D
:1011A0001349134B5A68134B13404B60104A104BB2
:1011B0001B6823F0847323F4803313600C4A0C4BB8
:1011C0001B6823F480231360094A094B5B6823F4EE
:1011D000FE035360064B4FF41F029A60044B00223B
:1011E000DA6200F075F8044B4FF000629A6080BD3F
:1011F000001002400000FFF800ED00E080B485B070
:1012000000AF0023FB600023BB6000237B60002352
:101210003B602A4B5B6803F00C03FB60FB68042B0C
:1012200007D0082B09D0002B2FD1254B254A1A6057
:101230002FE0234B234A1A602BE0204B5B6803F41A
:101240007013BB601D4B5B6803F480337B60BB682D
:101250009B0C0233BB607B68002B06D1BB681A4A2B
:1012600002FB03F3164A136013E0144BDB6A03F02E
:101270000F0301333B60134A3B68B2FBF3F3BA68D8
:1012800002FB03F30E4A136003E00D4B0D4A1A6094
:1012900000BF0A4B5B6803F0F0031B090B4AD35CE9
:1012A000DBB2FB60064B1A68FB6822FA03F3044AC0
:1012B00013601437BD465DF8047B70470010024090
:1012C0001400002000127A0000093D0018000020E0
:1012D00080B500AF00F002F880BD00BF80B483B0DD
:1012E00000AF00237B6000233B60304A2F4B1B681C
:1012F00043F4803313602D4B1B6803F400333B60D1
:101300007B6801337B603B68002B03D17B68B3F5BE
:10131000A06FF0D1254B1B6803F40033002B02D0E3
:1013200001233B6001E000233B603B68012B37D188
:101330001E4A1E4B5B6853601C4A1C4B5B68536023
:101340001A4A1A4B5B685360184A184B5B6823F4BF
:101350007C135360154A154B5B6843F49813536034
:10136000124A124B1B6843F08073136000BF0F4B8F
:101370001B6803F00073002BF9D00C4A0B4B5B6821
:1013800023F003035360094A084B5B6843F00203F0
:10139000536000BF054B5B6803F00C03082BF9D1C9
:1013A0000C37BD465DF8047B704700BF001002405B
:1013B00080B582B000AF78607B68264A93420AD13C
:1013C0004FF480400121FFF703FE4FF480400021DD
:1013D000FFF7FEFD3AE07B681F4A93420AD14FF4C3
:1013E00000300121FFF712FE4FF400300021FFF71B
:1013F0000DFE2BE07B68194A93420AD14FF48020FE
:101400000121FFF703FE4FF480200021FFF7FEFDCE
:101410001CE07B68124A93420AD14FF4002001215C
:10142000FFF7F4FD4FF400200021FFF7EFFD0DE082
:101430007B680C4A934209D14FF480100121FFF7D9
:10144000E5FD4FF480100021FFF7E0FD0837BD46B1
:1014500080BD00BF0038014000440040004800400B
:10146000004C00400050004080B58CB000AF786068
:1014700039600023FB620023BB6200237B620023F0
:101480003B620023FB617B68FB617B681B8A9BB22C
:10149000FB62FA6A4CF6FF731340FB623B68DB8821
:1014A0001A46FB6A1343FB62FB6A9AB27B681A8294
:1014B0007B689B899BB2FB62FA6A4EF6F31313407A
:1014C000FB623B689A883B681B8913439AB23B686E
:1014D0005B8913439BB21A46FB6A1343FB62FB6AA8
:1014E0009AB27B689A817B689B8A9BB2FB62FA6A9C
:1014F0004FF6FF431340FB623B689B891A46FB6A29
:101500001343FB62FB6A9AB27B689A8207F1080375
:101510001846FFF755FCFB692E4A934202D17B69BE
:10152000BB6201E03B69BB627B689B899BB29BB25B
:101530001BB2002B0CDABA6A13469B0013449A00C4
:101540001A443B681B685B00B2FBF3F37B620BE061
:10155000BA6A13469B0013449A001A443B681B68FE
:101560009B00B2FBF3F37B627B6A1B4AA2FB032363
:101570005B091B01FB62FB6A1B09642202FB03F38C
:101580007A6AD31A3B627B689B899BB29BB21BB27F
:10159000002B0CDA3B6ADB0032330F4AA2FB032339
:1015A0005B0903F00703FA6A1343FB620BE03B6A33
:1015B0001B013233084AA2FB03235B0903F00F032C
:1015C000FA6A1343FB62FB6A9AB27B681A8130376E
:1015D000BD4680BD003801401F85EB5180B483B00B
:1015E00000AF78607B684FF416521A607B68002267
:1015F0009A807B680022DA807B6800221A817B68EF
:101600000C225A817B6800229A810C37BD465DF816
:10161000047B704780B485B000AF786039600023E8
:10162000FB607B681B8A9BB2FB60FA684FF2FF038A
:101630001340FB603B681A883B685B8813439AB28F
:101640003B689B8813439AB23B68DB8813439BB289
:101650001A46FB681343FB60FB689AB27B681A82E8
:101660001437BD465DF8047B704700BF80B483B07B
:1016700000AF78607B6800221A807B6800225A8065
:101680007B6800229A807B680022DA800C37BD4696
:101690005DF8047B704700BF80B483B000AF786012
:1016A0000B46FB70FB78002B08D07B689B899BB2B4
:1016B00043F400539AB27B689A8107E07B689B8968
:1016C0009BB223F400539AB27B689A810C37BD46D3
:1016D0005DF8047B704700BF80B487B000AF7860CE
:1016E0000B467B8013467B7000233B610023FB602D
:1016F0000023BB6000237B617B687B617B88DBB25E
:101700005B09DBB23B617B8803F01F03FB60FB6876
:10171000012202FA03F3BB603B69012B03D17B6911
:101720000C337B6109E03B69022B03D17B691033E9
:101730007B6102E07B6914337B617B78002B06D0F0
:101740007B697A691168BA680A431A6006E07B69A6
:101750007A691168BA68D2430A401A601C37BD46DC
:101760005DF8047B704700BF80B483B000AF786041
:101770000B467B8013467B707B78002B08D07B6800
:101780009B8A9AB27B8813439AB27B689A8209E05B
:101790007B689B8A9AB27B88DB439BB213409AB2E8
:1017A0007B689A820C37BD465DF8047B704700BFAA
:1017B00080B483B000AF78600B46FB707B681B8AF7
:1017C0009BB223F00F039AB27B681A827B681B8A54
:1017D0009AB2FB789BB213439AB27B681A820C3799
:1017E000BD465DF8047B704780B483B000AF78607D
:1017F0000B467B807B689B899BB223F400639AB283
:101800007B689A817B689B899AB27B8813439AB2E2
:101810007B689A810C37BD465DF8047B704700BF3A
:1018200080B483B000AF78600B46FB70FB78002B70
:1018300008D07B689B899BB243F002039AB27B6815
:101840009A8107E07B689B899BB223F002039AB2DE
:101850007B689A810C37BD465DF8047B704700BFFA
:1018600080B483B000AF78600B467B807B681B8AB6
:101870009BB223F020039AB27B681A827B681B8A92
:101880009AB27B8813439AB27B681A820C37BD46A2
:101890005DF8047B704700BF80B483B000AF786010
:1018A0000B46FB70FB78002B08D07B681B8A9BB231
:1018B00043F480439AB27B681A8207E07B681B8AF4
:1018C0009BB223F480439AB27B681A820C37BD46E0
:1018D0005DF8047B704700BF80B483B000AF7860D0
:1018E0000B467B807B88C3F308039AB27B689A809F
:1018F0000C37BD465DF8047B704700BF80B483B0F1
:1019000000AF78607B689B889BB2C3F308039BB2EF
:1019100018460C37BD465DF8047B704780B483B031
:1019200000AF78607B689B899BB243F001039AB259
:101930007B689A810C37BD465DF8047B704700BF19
:1019400080B483B000AF78600B46FB707B681B8B64
:101950009BB2DBB29AB27B681A837B681B8B9AB20C
:10196000FB789BB21B029BB213439AB27B681A832B
:101970000C37BD465DF8047B704700BF80B483B070
:1019800000AF78600B46FB707B681B8B9BB223F02B
:10199000FF039AB27B681A837B681B8B9AB2FB7831
:1019A0009BB213439AB27B681A830C37BD465DF82D
:1019B000047B704780B483B000AF78600B46FB7047
:1019C000FB78002B08D07B689B8A9BB243F02003F6
:1019D0009AB27B689A8207E07B689B8A9BB223F06D
:1019E00020039AB27B689A820C37BD465DF8047B6F
:1019F000704700BF80B483B000AF78600B46FB70C7
:101A0000FB78002B08D07B689B8A9BB243F01003C5
:101A10009AB27B689A8207E07B689B8A9BB223F02C
:101A200010039AB27B689A820C37BD465DF8047B3E
:101A3000704700BF80B483B000AF78600B46FB7086
:101A4000FB78002B08D07B689B8A9BB243F008038D
:101A50009AB27B689A8207E07B689B8A9BB223F0EC
:101A600008039AB27B689A820C37BD465DF8047B06
:101A7000704700BF80B483B000AF78600B46FB7046
:101A8000FB78002B0AD07B689B899BB26FEA4343AB
:101A90006FEA53439AB27B689A8107E07B689B891F
:101AA0009BB2C3F30E039AB27B689A810C37BD4692
:101AB0005DF8047B704700BF80B483B000AF7860EE
:101AC0000B46FB70FB78002B08D07B689B8A9BB28F
:101AD00043F400639AB27B689A8207E07B689B8A32
:101AE0009BB223F400639AB27B689A820C37BD469E
:101AF0005DF8047B704700BF80B483B000AF7860AE
:101B00000B467B807B689B8A9BB223F004039AB2CE
:101B10007B689A827B689B8A9AB27B8813439AB2CD
:101B20007B689A820C37BD465DF8047B704700BF26
:101B300080B483B000AF78600B46FB70FB78002B5D
:101B400008D07B689B8A9BB243F002039AB27B6801
:101B50009A8207E07B689B8A9BB223F002039AB2C9
:101B60007B689A820C37BD465DF8047B704700BFE6
:101B700080B485B000AF78600B467B800023FB7398
:101B80007B681B889AB27B8813409BB2002B02D0E3
:101B90000123FB7301E00023FB73FB7B1846143722
:101BA000BD465DF8047B704780B483B000AF7860B9
:101BB0000B467B807B88DB439AB27B681A800C37AC
:101BC000BD465DF8047B704780B487B000AF786095
:101BD0000B467B800023FB6000237B610023BB60FE
:101BE0000023FB747B88DBB25B09DBB2BB607B88C4
:101BF00003F01F037B617B69012202FA03F37B611F
:101C0000BB68012B07D17B689B899BB21A467B6915
:101C100013407B6111E0BB68022B07D17B681B8AF4
:101C20009BB21A467B6913407B6106E07B689B8A06
:101C30009BB21A467B6913407B617B881B0A9BB26F
:101C4000FB60FB68012202FA03F3FB607B681B88E0
:101C50009BB21A46FB681340FB607B69002B05D0E2
:101C6000FB68002B02D00123FB7401E00023FB740E
:101C7000FB7C18461C37BD465DF8047B704700BFEF
:101C800080B485B000AF78600B467B800023FB8179
:101C90000023BB817B881B0AFB81FB89012202FA9E
:101CA00003F3BB81BB89DB439AB27B681A8014378C
:101CB000BD465DF8047B704780B584B000AF4FF43B
:101CC00080400121FFF748F94FF4E1333B600023E6
:101CD000BB800023FB8000233B810023BB810C23BE
:101CE0007B813B4605481946FFF7BEFB03480121AF
:101CF000FFF7D2FC1037BD4680BD00BF0038014061
:101D000080B582B000AF10200121FFF725F94FF414
:101D10008073BB801023FB710223BB713B1D0948FC
:101D20001946FEF725FB4FF40073BB801023FB71AF
:101D30000223BB713B1D03481946FEF719FB083708
:101D4000BD4680BD0010014080B485B000AF786012
:101D50000023FB6002E0FB680133FB607A68FB68EC
:101D60009A42F8D81437BD465DF8047B704700BF2F
:101D700080B500AF0F4B1B685B681846002102223C
:101D8000002300F0A9F80B4B1B689B681846002144
:101D90000222002300F0A0F8064B1B68DB681846FF
:101DA00000210222002300F097F8034800F080F899
:101DB00080BD00BF500400200075000880B500AF52
:101DC000FFF79EFFFFF778FF10484FF48071012264
:101DD000FEF70EFC0D484FF400710022FEF708FCE0
:101DE0000B48FFF7B1FF09484FF480710022FEF75E
:101DF000FFFB06484FF400710122FEF7F9FB04488F
:101E0000FFF7A2FFFFF7B4FFDEE700BF00100140BD
:101E100040420F0070B4840746D0541E002A41D0BF
:101E2000CDB2034602E0621EE4B3144603F8015B40
:101E30009A07F8D1032C2ED9CDB245EA05250F2CEF
:101E400045EA054519D9264603F11002103E0F2E2A
:101E500042F8105C42F80C5C42F8085C42F8045C02
:101E600002F11002F2D8A4F1100222F00F0204F0E5
:101E70000F041032032C13440DD91E462246043A97
:101E8000032A46F8045BFAD8221F22F00302043228
:101E9000134404F003042CB1C9B21C4403F8011B21
:101EA000A342FBD170BC704714460346C2E700BF93
:101EB0000FB410B5074B82B004AC54F8042B18686B
:101EC00023468168019400F083F802B0BDE8104019
:101ED00004B07047500400202DE9F0413A4D04460B
:101EE0002E6890460D461F4616B1B36B002B3CD0B2
:101EF000B8F1020F2FD8002F2DDB2146304602F01B
:101F0000C9FBA18900236360A3610B0627D421F0DC
:101F1000830189B2B8F1020FA1812AD0002D36D0F9
:101F2000B8F1010F11D089B201F00800274B80B23F
:101F3000F36325602561676178B111F0030F18BF65
:101F400000270020A760BDE8F08141F001017B423D
:101F5000A181A361E7E74FF0FF30BDE8F08121697F
:101F6000304602F099FCA189D1E7304602F026FC08
:101F7000BEE7002004F1430341F0020100250122E5
:101F8000A181A560236023616261BDE8F081002F1B
:101F900008BF4FF48067384602F0FCFD054628B1C3
:101FA000A18941F0800189B2A181B9E74FF4806035
:101FB00002F0F0FD054618B9A1894FF0FF30D9E7CE
:101FC0004FF48067ECE700BF50040020C1460008D2
:101FD0002DE9F04FBFB01C4689460892074602F033
:101FE00065FD03680C941846159303F0A3FC169046
:101FF0001FB1BB6B002B00F0F480B9F80C2093B23A
:102000009D040AD4D9F8641042F4005321F400511D
:10201000A9F80C30C9F864109BB2180740F1AB80E6
:10202000D9F81020002A00F0A68003F01A030A2B2A
:1020300000F0AD8000231A460DF1B80C6446B84696
:10204000119314931793099323932293CDF884C08B
:1020500012921392089D2B78002B00F0C680252B3E
:1020600002D1C2E0252B03D015F8013F002BF9D196
:10207000089BEE1A7EB1229B239A013308993244C1
:10208000072B84E842002392229300F393800834C4
:10209000099B334409932B78002B00F09380002395
:1020A0004FF0FF3A1A465646691C6D788DF8673036
:1020B0000A9306934B1CA5F12001582900F2C08316
:1020C000DFE811F05602BE03BE039902BE03BE0351
:1020D000BE03BE03BE03BE03A0026402BE03F20140
:1020E000F002BE036E02750275027502750275027A
:1020F0007502750275027502BE03BE03BE03BE0300
:10210000BE03BE03BE03BE03BE03BE0366032703B6
:10211000BE032703BE03BE03BE03BE035F03BE03AD
:10212000BE030A03BE03BE03BE03BE03BE03A80371
:10213000BE03BE037F03BE03BE03BE03BE03BE03D6
:10214000BE03BE03BE03BE03BE039403AE02270359
:1021500027032703CC02AE02BE03BE03D302BE0395
:10216000DD02F90184025D02BE030B02BE0395008D
:10217000BE03BE0330023846494601F08BF9A0B9D0
:10218000B9F80C3003F01A030A2B7FF453AFB9F9F6
:102190000E30002BFFF64EAF38464946089A2346CC
:1021A00001F03AF93FB0BDE8F08F4FF0FF303FB09B
:1021B000BDE8F08F4046494621AA03F025FC40B90E
:1021C0002EAC65E7239B23B14046494621AA03F084
:1021D0001BFCB9F80C305A06E7D409983FB0BDE8AB
:1021E000F08F384602F0EAFA07E7089D53E70893B4
:1021F000069BB2469E0640F117830C9F073727F0D7
:10220000070303F10802D3E900670C9201230022BF
:102210009446CDF83CA08DF86720BAF1000F03DB9F
:10222000069A22F08002069256EA070240F02A83BC
:10223000BAF1000F00F02884012B00F02B83022B51
:1022400000F075842EA9F20842EA4772F80806F0F9
:10225000070307461646303356EA070201F8013DE8
:10226000F1D1069A0E91D00700F113852EAB5B1ABF
:102270000B930B9A53469245B8BF1346079300231E
:102280001093BCF1000F02D0079B01330793069B0C
:1022900013F002030D9302D0079B02330793069BB2
:1022A00013F0840640F0EB820A9B079AC2EB030A04
:1022B000BAF1000F40F3E382BAF1100F2399229A8A
:1022C000B44FC8BF4FF0100B07DC1EE0AAF1100A94
:1022D000BAF1100F04F1080417DD01321031072A9A
:1022E0002391229284E88008F0DD4046494621AAE5
:1022F00003F08AFB00287FF46CAFAAF1100ABAF150
:10230000100F2EAC2399229AE7DC01320AEB010B65
:10231000072ACDF88CB0229284E8800400F3A482CE
:102320009DF867C00834BCF1000F0FD0229B0BF161
:10233000010B01330DF167010122072BCDF88CB0A1
:10234000229384E8060000F3BD8308340D9B73B12B
:10235000229B0BF1020B01331AA90222072BCDF8A5
:102360008CB0229384E8060000F3B8830834802EF2
:1023700000F0FB820F9B0B9AC2EB030ABAF1000F2D
:1023800032DDBAF1100F229A834F22DD10265B4610
:1023900006E0AAF1100ABAF1100F04F1080417DDE3
:1023A00001321033072A2393229227606660F0DD02
:1023B0004046494621AA03F027FB00287FF409AFD5
:1023C000AAF1100ABAF1100F2EAC239B229AE7DC77
:1023D0009B460132D344072ACDF88CB0229284E880
:1023E000800400F363830834069BDB0500F16682FA
:1023F000229B0B9901330E9A8B44072BCDF88CB09E
:1024000022606160229300F380830834069B5907A1
:102410003AD50A9B079A9D1A002D35DD102D229B77
:102420005C4F1EDD10265A4604E0103D102D04F1CD
:10243000080415DD01331032072B23922293276005
:102440006660F2DD4046494621AA03F0DDFA002825
:102450007FF4BFAE103D102D2EAC239A229BE9DCF9
:1024600093460133AB44072BCDF88CB02293276001
:10247000656009DD4046494621AA03F0C5FA0028F7
:102480007FF4A7AEDDF88CB0099B079A0A998A42BF
:10249000ACBF9B185B180993BBF1000F40F0EA82B8
:1024A000002322932EACD5E51946069840F004008F
:1024B00006901D78FEE50893069BB24613F02003B4
:1024C00000F015810C9F073727F0070303F108027E
:1024D000D3E900670C92002399E60C9A08931368DD
:1024E0004FF0000B0E938DF867B0171D002B00F016
:1024F0007E86002E0E98C0F230865946324602F093
:10250000D7FD002800F0AF860E9BCDF83CB0C31A73
:102510000B930C9723EAE3730793CDF840B09DF833
:1025200067C0AEE608931D4BB2461493069B8DF828
:102530006720990640F14F810C9F073727F007036A
:1025400003F108020C92D3E90067069BDB0740F118
:10255000078356EA070300F00383069A302342F00C
:1025600002028DF868308DF86950069202234EE61B
:10257000002A40F031851D78194620229AE50699F7
:1025800041F0200106911D78194693E51D78194602
:102590002B228FE56C750008187500084C75000833
:1025A000069941F0800106911D78194682E5A5F152
:1025B0003000002113F8015B01EB810100EB4101C8
:1025C000A5F130000928F5D90A9174E50C9A06990D
:1025D000089330238DF86830B44BB24678251668DE
:1025E00041F002010432149306910C9200278DF8F9
:1025F000695002230BE6069941F0010106911D780E
:10260000194657E50C9D296808460A912946002875
:1026100001F10401C0F26F850C911D78194649E55E
:102620000893069BB24699068DF8672040F1BC805E
:102630000C9F073727F00707D7E9002307F10801A8
:1026400016461F460C91002A73F10003C0F2E68380
:102650009DF867C0CDF83CA00123DEE5069941F066
:10266000400106911D78194624E51D7806996C2DC8
:1026700000F03A8541F01001069119461AE50893D9
:10268000069B8DF867209A0640F175840C9A1346D4
:1026900004330C93099B1168DF171A463B46C1E9C6
:1026A0000023D7E41D78591C2A2D00F09E86A5F141
:1026B000300009280B464FF000063FF6FCAC13F83B
:1026C000015B06EB860600EB4606A5F13000092803
:1026D000F5D946EAE676EEE40893069BB24643F067
:1026E00010030693069B13F020037FF4EBAE069ACB
:1026F00012F0100240F08182069B13F0400300F0BC
:102700007C820C9913460A4604320E8800270C92EC
:102710007DE50893069B0C9F1B07B2468DF867204A
:10272000B34607F1070740F10B8427F0070303F1D5
:1027300008020C921A685B6812921393139912980C
:1027400003F078F801281399129840F0758300225D
:10275000002304F0A1FB002840F06B859DF867C0C2
:10276000534A544B069E472DD8BF1A4603210020DA
:1027700026F0800607910F9006960E920B9110900E
:102780007FE5069941F0080106911D78194691E40C
:102790000893069BB24643F010030693069B8DF800
:1027A000672099063FF544AF069BDA0640F1D383D4
:1027B0000C9A13461E680433F7170C9332463B46B7
:1027C00041E708933C4BB2461493069B8DF8672073
:1027D00099063FF5B1AE069BDA0640F1F1830C9AFB
:1027E00000271346043316680C93AEE60C98089342
:1027F000026800238DF89020024601219C46043295
:102800008DF867300F93109324AB07910C920B91C6
:102810000E933CE50893069BB24643F010030693E3
:10282000069B9E063FF5E9AC069BD80640F1BA83AD
:102830000C9A134604321E68002701230C92E6E42A
:1028400008938DF86720002D3FF4BCAC00230122D3
:102850009C468DF867300F93109324AB07928DF848
:1028600090500B920E9312E54046494621AA03F080
:10287000CBF800287FF4ADAC9DF867C02EACDDF836
:102880008CB050E5012B7FF4DAAC002F08BF0A2E84
:1028900080F0E4810DF1F80B30360BF8416D2EAB72
:1028A000CBEB03030B93CDF838B0E2E44C75000892
:1028B0002C7500082875000838750008652D40F350
:1028C0008A80129813990022002304F0DBFA002872
:1028D00000F04981229BBA4901330BF1010B01221F
:1028E000072BCDF88CB0229384E8060000F3858393
:1028F00008341B9B119A934203DB069BDF077FF58D
:1029000085AD229B16990133159A8B44072BCDF880
:102910008CB022606160229300F3F4830834119B31
:102920005D1E002D7FF772AD102D229BA54F40F349
:10293000E28010265A4604E00834103D102D40F382
:10294000D98001331032072B2392229327606660CF
:10295000F2DD4046494621AA03F056F800287FF4EC
:1029600038AC2EAC239A229BE7E70A9B079A9E1A63
:10297000002E7FF7FFAC102E229A924F1FDD4FF0F2
:10298000100A5B4604E0103E102E04F1080415DD29
:1029900001321033072A2393229284E88004F2DD67
:1029A0004046494621AA03F02FF800287FF411ACD5
:1029B000103E102E2EAC239B229AE9DC9B4601325E
:1029C000B344072ACDF88CB022922760666000F3EA
:1029D00018820834CEE4119B229D012B0BF10106D5
:1029E00005F1010540F3C7810E9A0123072D2396B7
:1029F00022602295636000F3D7810834169A01356E
:102A0000159B1644072D239622952360626000F3E0
:102A1000D7810834002312981399002204F032FA67
:102A2000119B002840F0F1800E9A013B01350132E4
:102A30001E44072D226022952396636000F3D58102
:102A40000834179A013506EB020B1DAB072DCDF8A4
:102A50008CB02295626023607FF7D7AC4046494630
:102A600021AA02F0D1FF00287FF4B3AB2EACDDF831
:102A70008CB0CBE44046494621AA02F0C5FF0028AD
:102A80003FF40EADFFF7A5BB002B4AD1069BDA073A
:102A900047D50DF1F80B30230BF8413D2EABCBEBB6
:102AA00003030B93CDF838B0FFF7E3BB404649462C
:102AB00021AA02F0A9FF00287FF48BAB2EACDDF831
:102AC0008CB091E44046494621AA02F09DFF0028BF
:102AD0007FF47FAB2EACDDF88CB037E4404649463E
:102AE00021AA02F091FF00287FF473AB2EACDDF831
:102AF0008CB03CE493460133AB44072BCDF88CB04B
:102B00002293276065607FF780AC4046494621AA42
:102B100002F07AFF00287FF45CABDDF88CB02EACBD
:102B200074E42EABCDF82CA00E93FFF7A2BB149843
:102B30000DF1B80B330943EA0773390906F00F02A8
:102B40000F461E46835C0BF8013D56EA0703F1D1A0
:102B50005A462EAB9B1ACDF838B00B93FFF789BBC2
:102B60000223FFF754BB1B9D002D40F35282119AA4
:102B7000109913468A42A8BF0B461D460E99002D98
:102B800001EB020A0CDD0A46229BAB440133072B02
:102B9000CDF88CB084E82400229300F30583083438
:102BA000109B002DA8BF5B1B002B1D4640F38B80A4
:102BB000102D229B034F40F3148210265A4608E042
:102BC00068750008187500080834103D102D40F392
:102BD000078201331032072B23922293276066600D
:102BE000F2DD4046494621AA02F00EFF00287FF49C
:102BF000F0AA2EAC239A229BE7E70C9900270A46FD
:102C000004320E680C92FFF702BB03F1FF3ABAF1EF
:102C1000000F7FF716AFBAF1100F864FC8BF4FF005
:102C2000100B07DCD8E00834AAF1100ABAF1100F33
:102C300040F3D28001351036072D2396229584E883
:102C40008008F0DD4046494621AA02F0DDFE00285A
:102C50007FF4BFAA2EAC239E229DE5E70DF1B80BB1
:102C6000CDF81CC0304639460A22002304F064F92E
:102C70003032304639460BF8012D00230A2204F089
:102C80005BF906460F4656EA0703EBD1DDF81CC098
:102C90005EE7302B00F042820E9B2EA8013B1A46C5
:102CA0000E93821A30230B9201F8013CFFF7E1BA30
:102CB0004046494621AA02F0A7FE00287FF489AACF
:102CC000DDF88CB02EAC0E9A10991B9B0A44164668
:102CD000119A934240DB069AD5073DD4119AC6EB70
:102CE0000A05D31A9D42A8BF1D46002D2F460BDDB5
:102CF000229AAB440132072ACDF88CB084E8C00098
:102D0000229200F387820834002FB4BF1D46DD1BDA
:102D1000002D7FF77BAB102D229B464F7FF7EBAE4C
:102D200010265A4604E00834103D102D7FF7E2AE1D
:102D300001331032072B2392229327606660F2DD65
:102D40004046494621AA02F05FFE00287FF441AACE
:102D50002EAC239A229BE7E7229A16980132159906
:102D60008344072ACDF88CB021606060229200F382
:102D700031820834B2E7069BD8073FF535AE0E9A8C
:102D80000123072D23962260229563607FF758AEBA
:102D90004046494621AA02F037FE00287FF419AACE
:102DA0002EAC239E229D4CE64046494621AA02F0C5
:102DB0002BFE00287FF40DAA2EAC239E229D1DE63B
:102DC0004046494621AA02F01FFE00287FF401AACE
:102DD0002EAC239E229D1DE601355644072D2396D9
:102DE000229584E880047FF72BAE4046494621AA0D
:102DF00002F00AFE00287FF4ECA9239E229D2EAC4F
:102E00001FE64046494621AA02F0FEFD00287FF455
:102E1000E0A92EACDDF88CB0FFF7ACBA4FF02D0C6A
:102E2000764267EB47078DF867C0CDF83CA00123D9
:102E3000FFF7F3B91875000802F0FCFC002800F059
:102E40002D8125F02003BAF1FF3F0B9300F078822B
:102E5000472B05D1BAF1000F14BFD3464FF0010B39
:102E6000069B43F480730F93139BB3F1000A129BEC
:102E70000793B7BF5346002303F1004A2D23662D65
:102E80000D9300F07381462D00F070810B9B0220A2
:102E9000452B14BF5F460BF101071BA98DE881008C
:102EA00002911CA81FA90390079A5346049140461B
:102EB00000F0FAFB672D0E9002D0472D40F066819E
:102EC000069BDB0740F159820E9BDE19079851469D
:102ED0000022002303F0D6FF002840F0C2811F9B90
:102EE0009E4206D930215A1C1F9219701F9B9E4288
:102EF000F9D80E9A9B1A11930B9B472B1B9B00F042
:102F0000A981652D40F3BB81662D109300F02882C6
:102F1000119B109A934200F31682069BD90700F189
:102F20003C8222EAE2730B920D9A002A40F08781DC
:102F300007930F9B9DF867C006930F92FFF7A1B907
:102F400027F007073B6812937B68139307F1080388
:102F50000C93FFF7F3BB069B0C9A13F0400F13463C
:102F60003FF428ACB2F900600433F7170C933246F3
:102F70003B46FFF768BB069BDB060BD4069B5F0650
:102F800008D50C9A136804320C92BDF824201A80DC
:102F9000FFF760B80C9A136804320C92099A1A6011
:102FA000FFF758B8069B0C9A13F0400F13463FF4F6
:102FB00041AC16880432002701230C92FFF727B991
:102FC000069B0C9A13F0400F13467AD004331688F0
:102FD00000270C93FFF7B9BA19461D78FFF76AB8B6
:102FE00093460133AB44072BCDF88CB02293276076
:102FF00065603FF75DAE083465E64046494621AA64
:1030000002F002FD00287FF4E4A82EACDDF88CB0BD
:103010006FE4229BB04901330BF1010B0122072B16
:10302000CDF88CB0229384E8060050DC08342DB92A
:10303000119B1BB9069BDE077FF5E8A9229B169919
:10304000013315980BEB0102072B239284E8030050
:10305000229300F3688108346D42002D6FDD102D3E
:103060009E4FC8BF102605DCAAE00834103D102D85
:1030700040F3A68001331032072B2392229327605E
:103080006660F2DD4046494621AA02F0BDFC0028F8
:103090007FF49FA82EAC239A229BE7E7904A914B9E
:1030A000069E472DD8BF1A46032126F080060F90B2
:1030B0000791069610900E920B919DF867C0FFF74E
:1030C000E0B80433166800270C93FFF73EBA404679
:1030D000494621AA02F098FC00287FF47AA82EAC79
:1030E0001B9DDDF88CB0A2E741F0200106915D78D0
:1030F000591CFEF7DFBF0A980C9140420A9019460E
:10310000FFF7D3B94046494621AA02F07DFC0028CA
:103110007FF45FA82EACDDF88CB000E40E9A2EABE5
:103120009B1A0B93FFF7A5B84046494621AA02F027
:103130006BFC00287FF44DA8239A229B2EAC11989B
:10314000013302EB000B0E9A072BCDF88CB02293C3
:10315000226060607FF759A9D7E4CDF83CB002F057
:10316000E9FB0C970B900346FFF7D4B903201BA98A
:103170008DE8010802911CA81FA90390079A5346E5
:103180000491404600F090FA5F460E900E9BDE19C7
:103190000B9B462B7FF49AAE0E9B1B78302B00F0D6
:1031A000EE801B9F3E4491E64046494621AA02F02C
:1031B0002BFC00287FF40DA82EACDDF88CB0EFE4DA
:1031C00001332A44072B2392229327606560ABDCEE
:1031D0000834B4E74046494621AA02F015FC00280D
:1031E0007EF4F7AF2EAC1B9BDDF88CB076E5334652
:1031F000062E28BF06230B9323EAE373DDF838C0BD
:103200000793394B0C97CDF83CC0CDF840C00E93D6
:10321000FFF737B84046494621AA02F0F5FB0028DF
:103220007EF4D7AF1B9B119ADDF88CB0D31A2EAC6D
:103230006AE52D239C468DF86730FFF791BA079316
:103240000F9B4FF02D0C069300238DF867C00F9352
:10325000FFF71AB8DF1C11DB9B450FDB10936725C6
:1032600056E6334645E626EAE6730F900C97109033
:103270009DF867C007930B96FFF703B8023D013B2B
:10328000002B1B93BABF5B422D222B22092B8DF8FA
:1032900074508DF8752040F386800DF1830001464F
:1032A000124A82FB0326DA17C2EBA60606EB860259
:1032B000A3EB42023032092E334601F8012DEFDC38
:1032C0000A463033DEB202F8016D904240F2A0802F
:1032D0000DF176020B460DE06875000818750008C0
:1032E000347500083075000860750008676666660A
:1032F00013F8016B834202F8016BF9D121AB5B1A21
:103300000DF1760213441DAA9B1A119A1793012AF4
:1033100013440B9357DD0B9B002201330B93109248
:1033200023EAE37300E64046494621AA02F06CFB1B
:1033300000287EF44EAF2EAC1B9D239A229B8BE679
:103340004FF0060B8CE5109B002BD8BFC3F1020693
:10335000119BC8BF0126F3180B9323EAE373E3E53F
:10336000002B39DDBBF1000F25D1069BDE0722D4EF
:10337000109A22EAE2730B92D6E51F9BB9E50798F3
:1033800051460022002303F07DFD00287FF409AFA1
:10339000C7F101071B973E4498E5109B01330B933F
:1033A00023EAE373C0E5303330228DF877308DF8AF
:1033B00076201EABA7E7109B0BF1010633440B935D
:1033C00023EAE373B0E5069B13F00103A3D1109346
:1033D0000B9B23EAE373A7E5BBF1000F12D1069B19
:1033E000D8070FD401230B939EE50C9D28462E6829
:1033F0000430002E5D780C90BEF65CAE4FF0FF36C8
:10340000FEF758BE0BF102030B9323EAE3738BE53F
:103410000DF1760377E700BF2DE9F04588464F6E42
:10342000ADF26C4D1997D8F81C70B1F80CE0B1F8FA
:103430000EA00797D8F824701AAC4FF480652EF0D0
:10344000020E002669460094049402950595ADF895
:103450000CE0ADF80EA0099706960546FEF7B8FDFC
:10346000041E07DB2846694601F014F9B04218BF74
:103470004FF0FF34BDF80C305B0605D5B8F80C30C2
:1034800043F04003A8F80C3020460DF26C4DBDE827
:10349000F08500BF38B52F4B054618680C4610B1B3
:1034A000836B002B36D0A28993B218070CD5206904
:1034B000A8B113F001021ED0636900225B42A36130
:1034C000A260F0B1002038BDD9063AD5580724D4FF
:1034D000206942F00803A3819BB20028E9D103F4DC
:1034E0002072B2F5007FE4D02846214601F0E2FACE
:1034F000A3892069DDE7990758BF6269A2600028A7
:10350000E0D1A3891A06DED543F04003A3814FF032
:10351000FF3038BD01F052F9C5E7216B49B104F124
:103520004003994203D0284601F0B6F9A28900234E
:103530002363206922F02402002392B284E8090068
:10354000C7E742F0400209232B604FF0FF30A28111
:1035500038BD00BF50040020024B13B1024800F0F8
:1035600005B8704700000000D14700080146002060
:103570000246034602F068BA2DE9F04F03690F696D
:1035800083B09F4200F38B80013F01F1140600F1EC
:10359000140A56F827305AF827200133B2FBF3F803
:1035A000BB00009306EB030953440193B8F1000FED
:1035B0003DD000231C46B446D6461A465CF804BBF0
:1035C000DEF800501FFA8BF34FEA1B4B03FB082277
:1035D0000BFB08F303EB124392B2A41A1FFA83FB0E
:1035E000AAB22244CBEB154404EB224492B242EA45
:1035F0000442E1454EF8042B4FEA24444FEA1342BB
:10360000DCD2009B5AF803308BB9019C231F9A45EA
:103610000CD254F8043C4BB9A4F1080302E01A6838
:10362000043B1AB99A4507F1FF37F8D307610446FE
:1036300002F016F800282EDB00235546194608F143
:10364000010856F8042B2B6890B2081A120C99B294
:10365000C2EB1343421803EB224392B242EA034205
:10366000B14545F8042B4FEA2341EAD25AF8272006
:103670000AEB87037AB91A1F92450BD253F8042C30
:1036800042B9083B02E01A68043B1AB99A4507F1AF
:10369000FF37F8D32761404603B0BDE8F08F002024
:1036A00003B0BDE8F08F00BF2DE9F04F016C99B079
:1036B0000446CDE90223259D41B1426C012393408C
:1036C0008B604A6001F0E0FD00232364DDE9022302
:1036D000002B994636DB00232B60A54B1A4609EADE
:1036E0000303934217D0DDE902670022002330462E
:1036F000394603F0C7FB804600282BD0249A0123CB
:103700001360269B002B00F0CB809A48186001388C
:1037100019B0BDE8F08F42F20F73249A1360029B38
:10372000002B00F0A6809448269B002BF0D0C37895
:10373000002B00F0B78000F10803269A136019B03F
:10374000BDE8F08F039A012322F000492B60CDF8E9
:103750000C90C2E717AA16AB8DE80C002046324643
:103760003B4602F013F85FEA1955834640F08A8021
:10377000DDF85880179D6FF4826345449D42C0F286
:1037800095827E4A05F21243521B09FA02F9029A07
:1037900022FA03F049EA000003F096F80123013D04
:1037A000A1F1F87112930022754B02F04FFF6AA34A
:1037B000D3E9002303F0FEF869A3D3E9002302F064
:1037C00047FF064628460F4603F08EF866A3D3E966
:1037D000002303F0EFF802460B463046394602F06C
:1037E00037FF06460F4603F07FFB3946059000225F
:1037F0003046002303F050FB002840F0A481059BD5
:10380000162B00F29D81DDE9022305985D4901EB4D
:10381000C001D1E9000103F05DFB002800F05082F7
:10382000059B013B059300230C93C5EB0805B5F1FF
:10383000010A00F19F8100230693059B002BC0F233
:1038400090819A440B9300230993229B092B2BD838
:10385000052B40F37786043B22930025229B023BF5
:10386000032B00F25586DFE813F0CF03C103B0024B
:103870006A06414B444AC9F31300002814BF184696
:10388000104651E7C7F3130343F07F51CDF848804A
:103890003046A5F2FF3541F44011DDF8588082E74B
:1038A0003A4835E7C31C48E700216164204622916D
:1038B00001F0C2FC4FF0FF33229A07930D930123CE
:1038C0000890239220640A93179B002BC0F2D080AB
:1038D000059A0E2A00F3CC802A4B03EBC203D3E9EE
:1038E0000089239B002BC0F29283DDE902674246E8
:1038F0004B463046394603F087F903F0F5FA824625
:1039000002F0F2FF42464B4603F054F802460B46E3
:103910003046394602F09AFE079E089F0AF13005AC
:10392000012E3D7002460B4607F1010562D00022D0
:10393000174B03F03FF80022002306460F4603F022
:10394000A1FA002840F08180CDF808B0DDF820A071
:10395000DDF81CB006942AE061436F63A787D23F6D
:10396000B3C8608B288AC63FFB799F501344D33F6E
:103970000000F07F69750008887500080EFCFFFFE5
:103980000000F83F987500087C750008687500080D
:10399000000024400022C84B03F00CF80022002352
:1039A00006460F4603F06EFA002840F0E0834246D8
:1039B0004B463046394603F027F903F095FA0446A2
:1039C00002F092FF42464B4602F0F4FF02460B46DD
:1039D0003046394602F03AFE04F1300605F8016B34
:1039E000CAEB0506B34502460B46D3D1A246DDF825
:1039F00008B0069C1046194602F02AFE06460F46FD
:103A00004046494632463B4603F046FA48B94046EE
:103A1000494632463B4603F035FAB0B11AF0010F81
:103A200013D015F8018C6B1E089904E08B4200F04E
:103A3000458413F8018DB8F1390F03F101051A46D9
:103A4000F4D008F10103DBB213702046594601F0AF
:103A50001BFC0022059B2A70249A01331360269BCD
:103A6000002B00F04A8308981D6019B0BDE8F08F64
:103A70000A9A002A00F08480229A012A40F30983DE
:103A8000079B5F1E099BBB42C0F2AF83DF1B079BF6
:103A9000002BC0F2A584069D079B069A20461A4477
:103AA000012106929A4401F089FC064665B1BAF1FB
:103AB000000F09DDAA455346A8BF2B46069AED1A0A
:103AC000D21A0692C3EB0A0A099B002B1ADD0A9B45
:103AD000002B00F08383002F10DD31463A4620464C
:103AE00001F016FD06465A463146204601F070FCAC
:103AF00080465946204601F0C7FBC346099BDA1BA6
:103B000040F0A7822046012101F058FC0B9B804623
:103B1000002B39DD01461A46204601F0F9FC229BB4
:103B20008046012B40F39B824FF00009D8F81030FB
:103B300008EB8303186901F0F3FBC0F120002DE0CE
:103B400001230C9371E6059802F0CEFE32463B4607
:103B500003F098F900287FF452AE059B013B0593D2
:103B60004DE6069A059BD21A5B4209930023069202
:103B70000B936AE6CAF1000306934FF0000A5CE675
:103B8000099F069D0A9E91E7229B012B40F3B88274
:103B90004FF000090B9B002BC8D10120504410F0BE
:103BA0001F0000F08180C0F12003042B40F3C1848A
:103BB000C0F11C00069B0544034406938244069B07
:103BC000002B05DD59461A46204601F0F1FC8346DC
:103BD000BAF1000F05DD41465246204601F0E8FCEF
:103BE00080460C9B002B40F06D82079B002B40F31E
:103BF0009B820A9B002B71D1DDF82090079F4D46D8
:103C000004E05946204601F049FB834658464146A8
:103C1000FFF7B2FC303005F8010BC9EB0503BB42DE
:103C20004FF00A024FF00003EBDB089B079A844633
:103C3000012AACBF9B1801331D464FF0000A5946BC
:103C400001222046CDF808C001F0B2FC414683466F
:103C500001F006FD0028DDF808C040F3FC8215F8ED
:103C6000012C6B1E089904E08B4200F0798213F856
:103C7000012D392A03F10105F6D001321A704146AF
:103C8000204601F001FB002E3FF4DFAEBAF1000F39
:103C900005D0B24503D05146204601F0F5FA314631
:103CA000204601F0F1FAD0E61C2083E7034B029A8C
:103CB0005B1B02FA03F06FE500002440EEFBFFFF00
:103CC0000C90B2E53146002320460A2201F0E6FAC4
:103CD0000D9B0646002B40F315840793002D05DD50
:103CE00031462A46204601F063FC0646B9F1000F32
:103CF00040F0EE82B146089A079B1746013BD31865
:103D00000993029B03F001030A9341465846FFF7CB
:103D100033FC31460546584601F0A2FC4A4682462D
:103D20004146204601F0C0FCC268034605F1300C54
:103D3000002A40F0BD8119465846CDF81CC00693B4
:103D400001F08EFC069B02901946204601F09CFA79
:103D5000029ADDF81CC02AB9229B1BB90A9B002BD2
:103D600000F0B083BAF1000FC0F2578205D1229B58
:103D70001BB90A9B002B00F05082002A00F3BC8282
:103D8000099B07F1010A9F4287F800C0554600F0E1
:103D9000BF8259460A220023204601F07FFA4E4591
:103DA0008346314620464FF00A024FF0000300F0F0
:103DB000798101F073FA494606460A22204600231B
:103DC00001F06CFA574681469FE701230A93239B33
:103DD000002B40F319821F461E460D9307930021C6
:103DE000172F61640AD9012204235B0003F1140038
:103DF0008742114602F10102F7D26164204601F0C8
:103E00001BFA0E2E089020643FF65EAD002D3FF4A5
:103E10005BADDDE902230599CDE90E23002940F3CE
:103E20002682BA4B01F00F020D1103EBC203E90623
:103E3000D3E9006740F1E181DDE90E01B44B05F003
:103E40000F05D3E9082302F0DFFECDE902014FF0B0
:103E500003088DB130463946DFF8B492EA0705D53C
:103E6000D9E9002302F0A6FD08F101086D1009F15F
:103E70000809F3D106460F46DDE9020132463B460A
:103E800002F0C2FECDE902010C9B43B1DDE9020163
:103E90000022A04B03F000F8002840F0B582404615
:103EA00002F022FDDDE9022302F084FD9A4B00229C
:103EB00002F0CEFB079B0646A1F15077002B00F0E5
:103EC0006881059BDDF81CC013930A9B002B00F052
:103ED00026828E4B002003EBCC0353E902238F494B
:103EE000CDF850C002F090FE32463B4602F0AEFBE9
:103EF000DDE90267CDE910013946304602F0F4FFF2
:103F0000054602F0F1FC02460B463046394602F007
:103F10009DFBDDE9102330355FFA85F8089D0646E4
:103F200085F800800F46013502F0B6FF002840F00A
:103F3000B98232463B460020764902F087FB0246B2
:103F40000B46DDE9100102F0C5FF002840F0B38206
:103F5000DDF850C0BCF1010F40F33A81089BCDF869
:103F600050A0CDF808B003EB0C09DDE910ABA0467A
:103F70000FE032463B460020664902F067FB52469E
:103F80005B4602F089FF002840F090824D4500F02A
:103F90001A81504659460022614B02F00BFD002267
:103FA0005F4B82468B463046394602F003FD0F4692
:103FB000064602F099FF044602F096FC02460B46C4
:103FC0003046394602F042FB3034E4B205F8014B8A
:103FD00052465B4606460F4602F05EFF0028C8D0F8
:103FE000139BDDF808B0444605932EE500230A93A1
:103FF000239B059A13440D930133002B079340F341
:104000000A81079E3746EAE600230A93DFE6079B0C
:10401000002B3FF76AAC40F0668240460022414BDD
:10402000494602F0C7FCDDE9022302F049FFDDF852
:104030001C804646002800F08B80239B089DDB43B4
:1040400005934146204601F01FF9002E7FF427AE6C
:10405000FBE45946204601F05BFA834652E5029B99
:10406000002B7FF461AD039BC3F31303002B7FF49C
:104070008FAD039B23F000473F0D3F05002F00F05D
:104080001E82069B0AF1010A013306934FF00109D3
:1040900080E5129A002A00F0A98103F23343099FB8
:1040A000069DFAE401F0FAF85746064681462CE6EA
:1040B00001462046CDF808C001F0E6F80122DDF8FF
:1040C00008C04FE65846414601F0CAFA0028BFF63C
:1040D0008CAD059F5946002320460A22013F0597D3
:1040E00001F0DCF80A9B8346002B7FF4EBAD0D9BBF
:1040F000002B40F3FC8107937EE50898FFF708BB8F
:10410000029B002B7FF444ADADE700BF987500081B
:10411000707600080000F03F00001C400000E03F07
:104120000000244000001440229B022B7FF761AD69
:10413000079B002B81D141460522204601F0AEF8B5
:1041400080465846414601F08BFA00287FF775AF4C
:10415000059A08993123013205920B704D1C70E7C6
:10416000059A312301320592089A137087E5DDF82C
:1041700008B0069C69E4404602F0B6FBDDE9022384
:1041800002F018FC0022BE4B02F062FA0646A1F1D2
:104190005077DDE902010022BA4B02F057FA3246AD
:1041A0003B46CDE9020102F095FE8046002840F032
:1041B000B280DDE90201324607F1004302F06CFEF5
:1041C00030B1464639E74446DDF850A0DDF808B086
:1041D000DDE90E23CDE90223FFF776BB5946099AA4
:1041E000204601F095F983468CE4099B0B9AFB1A53
:1041F0001A4409970B92002749E4DDE90E234FF09A
:104200000208CDE9022324E6012623960D9607969F
:1042100000216164F2E51E46FAE7002A15DD5946E1
:1042200001222046CDF808C001F0C2F9414683467C
:1042300001F016FA0028DDF808C040F34D81BCF10A
:10424000390F00F009810CF1010CB24687F800C06B
:104250007D1C4E4613E504D11CF0010F01D0FEE495
:10426000154615F8013C6A1E302BF9D007E5059B71
:104270005D42002D00F0C180DDE90E01824B05F0AA
:104280000F0203EBC203D3E9002302F093FB2D11CD
:10429000CDE9020100F030817C4E4FF00208EB07BF
:1042A00005D5D6E9002302F085FB08F101086D1061
:1042B00006F10806F3D1CDE90201E5E5059A3023C0
:1042C00001320592089A137031231370FFF7BDBBBA
:1042D0007168204600F0B0FF0546336906F10C0115
:1042E0009A1C92000C3000F02DFF20462946012236
:1042F00001F05EF98146FEE4BCF1390F00F0AC80BC
:104300000CF1010CB24687F800C07D1C4E46B6E4A5
:10431000B2464E4693E44FF00008464618E75A4925
:104320000CF1FF3301EBC3013246D1E900011493D4
:104330003B46CDF854C002F03DFBDDE90267CDE914
:1043400010013946304602F0CFFD054602F0CCFAA6
:1043500002460B463046394602F078F9DDF854C083
:10436000089A3035BCF1010F157006460F4602F170
:10437000010523D0089BCDF808A063445E469A4609
:10438000AB460022424B02F015FB8946804602F004
:10439000ABFD074602F0A8FA303702460B4640460E
:1043A000494602F053F90BF8017BD345E9D1B346F6
:1043B0000F460646149BDDF808A01D440022354B2D
:1043C000DDE9100102F044F932463B4602F064FD9B
:1043D000002848D0139B059315F8018CFFF723BBE9
:1043E000069B079A9D1A0023FFF757BB169B099F50
:1043F000C3F13603069DFFF750BBDDE90E234FF0F6
:104400000208CDE902233FE5079B002B3FF4B3AE42
:104410000D9D002D7FF7DCAEDDE9020100221C4B73
:1044200002F0C8FA06460F4608F10100CDE902671E
:1044300002F05AFA02460B463046394602F0BAFA02
:104440000F4B002202F004F9059B0646013B139333
:10445000A1F15077AC4638E53922B2463A704E4663
:104460007D1CFFF7FEBBDDE910230020094902F0A7
:10447000EDF832463B4602F02DFD70B9A8E600BFCC
:1044800000001C4000001440987500087076000879
:10449000000024400000E03F154615F8013C6A1E6C
:1044A000302BF9D0139B0593FFF7CFBA4346A046B4
:1044B0001C46DDF808B0139B0593FFF7B4BAB94664
:1044C000FFF768BBBCF1390FC6D0BAF1000F7FF718
:1044D000BCAE05F1310CB8E67FF4B7AE1CF0010FAD
:1044E0003FF4B3AEABE64FF000084646A5E5229B8D
:1044F000022B04DC0D9BFEE54FF00208C4E40D9B8B
:10450000079315E6229B022BF9DC0D9BFFF7E5BB19
:10451000002565642946204600F08EFE4FF0FF33EB
:1045200007930D9301230890239520640A93FFF7C6
:10453000CBB93FF444ABC0F13C00FFF73BBB0123D8
:104540000A9355E50125FFF789B900BF8B892DE94D
:10455000F0419AB20D46110780463CD46A6843F494
:104560000063002AAB8165DDAE6A002E4BD09BB2A2
:1045700003F48052002192B2D8F80040C8F800102D
:10458000002A5BD02A6D5F0705D569682B6B521A2C
:104590000BB1EB6BD21A4046E9690023B047461CC9
:1045A00056D0AB892A6923F400639BB200212A60AC
:1045B000DA04AB8169603BD4296BC8F8004011B3C1
:1045C00005F14003994202D0404600F065F9002011
:1045D0002863BDE8F0812E69AEB191072C680CBF4D
:1045E0006B6900232E60A41BAB600AE032462346B1
:1045F0006F6A4046E969B8470028A4EB0004064406
:1046000004DD002CF2DC0020BDE8F081AB894FF026
:10461000FF3043F04003AB81BDE8F081AB892A69EC
:1046200023F400639BB2AB81DB0469602A60C3D5CD
:104630002865C1E7EA6B002A96DCE4E701234046DF
:10464000E969B047431C024619D0AB89AE6A9AE7C4
:10465000D8F800100029E1D01D2907D0162905D06F
:10466000AB8943F04003AB81BDE8F081AB89296998
:1046700023F400630022AB8185E806009CE7D8F8AC
:104680000030002BE1D01D2B01D0162BBED1C8F875
:104690000040B8E710B5044682B008B1836B53B14F
:1046A000B1F90C0008B902B010BD204602B0BDE857
:1046B0001040FFF74BBF019100F080F80199EFE740
:1046C000014900F0C1B900BF715B00082DE9F04F4E
:1046D000074635487D68002407F53B720423032113
:1046E000F863C7F8E412C7F8E822C7F8E04283B0DD
:1046F0002C606C60AC606C66EC812C616C61AC61B0
:10470000AB81214605F15C000822FDF783FBDFF851
:104710009CB0BE68DFF898A0DFF89890DFF898802A
:1047200001230922C5F820B0C5F824A0C5F82890B7
:10473000C5F82C80ED612146F381B28106F15C0061
:1047400034607460B460746634617461B46108226A
:104750000193FDF75FFBFD6812200222F661C6F8A7
:1047600020B0C6F824A0C6F82890C6F82C802146B0
:10477000A881EA812C606C60AC606C662C616C6115
:10478000AC6105F15C000822FDF744FB019BED6183
:10479000C5F820B0C5F824A0C5F82890C5F82C802D
:1047A000BB6303B0BDE8F08FC1460008B1580008F4
:1047B000D55800080D5900082D590008836B03B126
:1047C0007047FFF783BF00BF704700BF704700BF4F
:1047D00038B5084B084DED1AAC1018BFED1805D0D0
:1047E000013C55F8043D9847002CF9D1BDE838400C
:1047F00002F080BECC080020D0080020F8B50C469E
:10480000224F064600F014FDBB685D6825F00305E5
:10481000291B01F6EF7121F47F6121F00F01A1F551
:104820008054B4F5805F07DB3046002101F02EF89C
:10483000BB682B44984204D0304600F0FBFC0020BB
:10484000F8BD3046614201F021F801300DD0104B27
:10485000BA6819682D1B45F001053046091B5560E3
:10486000196000F0E7FC0120F8BD3046002101F09E
:104870000DF8BA68831A0F2BDEDD064C0449246854
:1048800043F00103001B53600860D5E7B00400202B
:1048900000090020BC08002000294ED02DE9F0417D
:1048A0000C46804600F0C4FC54F8047C6249A4F134
:1048B000080527F00102AB188E6858689E4220F068
:1048C00003005AD0FE0758600BD454F8087C01F15D
:1048D000080EED1BAC683A44744567D0EF68E7609A
:1048E000BC601C186468E4070CD4544F9C680244F4
:1048F000BC427CD0D86842F00103E06084606B6009
:10490000AA5003E042F001036B60AA50B2F5007FA9
:1049100014D2D20801EBC20301244868921004FAB1
:1049200002F29C681043AC60EB6048609D60E560FB
:104930004046BDE8F04100F07DBC7047530A042BAF
:1049400047D8930903F13804600001EB80008368C5
:104950003949834243D0596821F00301914202D979
:104960009B689842F7D1DA68EA60AB604046956090
:10497000DD60BDE8F04100F05DBCFF07024407D4F4
:1049800054F8084C2D1BEB68A8682244C36098605B
:104990002B4B42F001001B6868609A428D60C7D3C0
:1049A000284B40461968FFF729FFC1E719184968E5
:1049B000C90709D4D96802449B6842F00100D96054
:1049C0008B606860AA50B3E742F001036B60AA50A5
:1049D000AEE7142B14D803F15B046000B5E74A6816
:1049E000A4100120A04002434A601A46BCE742F0EE
:1049F00001034D610D61EC60AC606B60AA5097E7FC
:104A0000542B04D8130B03F16E0460009DE7B3F53B
:104A1000AA7F04D8D30B03F17704600095E740F236
:104A20005450834204D8930C03F17C0460008CE75B
:104A3000FC207E2489E700BFB0040020B8040020D9
:104A4000B8080020FC0800202DE9F84310F538765E
:104A50001ED0884607464FF000097568B468013DCE
:104A600010D4A389013D012B08D9B4F90E300133CC
:104A700004D038462146C04749EA00096B1C04F1BE
:104A80006804EED13668002EE7D14846BDE8F883C9
:104A9000B1464846BDE8F883004870478C040020C2
:104AA000014B1868704700BFAC04002000487047F5
:104AB000540400208B899AB212F0020F3CD1F0B559
:104AC0000C46B1F90E1091B00029054619DB01AA78
:104AD00001F0FAF8002812DB029B03F47043A3F5FF
:104AE0000057B7FA87F7B3F5004F4FEA57172AD0A8
:104AF000A3894FF4806643F40063A3810BE0A3898C
:104B00009AB212F0800F43F40063A3810CBF4FF4FC
:104B10008066402600272846314600F043F8A389E6
:104B200040B31A4A43F08003EA63A3812060206106
:104B300066619FB911B0F0BD01F1430301220B6022
:104B40000B614A617047124BA26A9A42D0D1A38985
:104B50004FF480663343A381E664DCE72846B4F96A
:104B60000E1001F055FA0028E4D0A38943F00103A8
:104B7000A381DFE79A05DDD404F1430243F0020389
:104B80000121A381226022616161D3E7C14600084F
:104B90000D590008024B0146186800F003B800BF29
:104BA000500400202DE9F04F01F10B05162D83B0C4
:104BB000064627D935F0070500F1B680A94200F274
:104BC000B38000F035FBB5F5FC7F22D2BC4FE8087E
:104BD00007EBC003DC689C4200F0BC816368E168BD
:104BE00023F0030323445A68A56842F00102E960F8
:104BF00030468D605A6000F01DFB0834204603B03B
:104C0000BDE8F08F102900F28F8000F011FB102515
:104C1000DCE7680A00F08F80042800F24781A809C9
:104C200038304100A64F07EB8101CC68A14206D184
:104C30000CE0002A80F28280E468A14206D063681A
:104C400023F003035A1B0F2AF3DD013801309C497E
:104C50003C6901F1080E744500F07181636823F02E
:104C600003035A1B0F2A00F35781002AC1F814E0EE
:104C7000C1F810E066DAB3F5007F80F02D81DB0823
:104C800001EBC3084FEAA30C4A68012303FA0CF3B3
:104C9000D8F808C01343C4F808C0C4F80C804B60AF
:104CA000C8F80840CCF80C408210012494409C4283
:104CB00055D8234206D120F003006400234200F1BE
:104CC0000400FAD007EBC008C4468146DCF80C307B
:104CD0009C4507D135E1002980F24581DB689C4580
:104CE00000F02F815A6822F00302511B0F29F2DDD8
:104CF0001C46DA6854F808CF45F0010941F0010874
:104D00001D44C3F804903046CCF80C20C2F808C00B
:104D10007D613D61C5F80CE0C5F808E0C5F8048088
:104D2000695000F087FA69E7002420460C233360BD
:104D300003B0BDE8F08F7E213F2073E723445A681B
:104D4000E16851E723445A68304642F001025A6054
:104D5000083400F06FFA204603B0BDE8F08FBC685D
:104D6000636823F00308454504D8C5EB08030F2BFF
:104D700000F38C80534BDFF85CA11A68DAF800303E
:104D80002A44013304EB080B00F0518102F58052F4
:104D90000F3222F47F6222F00F0211463046019258
:104DA00000F074FDB0F1FF3F8146019A00F04881A8
:104DB000834500F2EF80444BCB45196811441960DC
:104DC00000F04381DAF80000DFF808E101301BBF92
:104DD000CBEB090B5944CEF80090196019F007018C
:104DE00000F00881C1F10800C1F58051814408310B
:104DF0004A44C2F30B02C2EB010A5146304601930A
:104E000000F044FD431C019B00F02D81C9EB000222
:104E1000524442F001021968BC425144C7F808905C
:104E20001960C9F80420DFF8A0A016D0B8F10F0F60
:104E300040F2EF806268A8F10C0323F0070302F050
:104E40000102E0184FF0050E1A430F2B6260C0F804
:104E500004E0C0F808E000F20A811C4BBC681A6844
:104E6000914288BF19601A4B1A689142626888BFE4
:104E7000196022F003029542A2EB050301D80F2B23
:104E800004DC304600F0D6F90024B7E645F0010214
:104E900043F00103254462603046BD6008346B6016
:104EA00000F0C8F9204603B0BDE8F08F142869D996
:104EB000542800F29880280B6E304100B2E600BF03
:104EC000B0040020FC08002000090020F8080020A1
:104ED000F4080020BC0800205A0A042A55D9142AD4
:104EE00000F2A7805B324FEA420C07EB8C0CDCF837
:104EF0000810DFF8B88161457FD04A6822F00302CC
:104F0000934202D289688C45F7D1CA687B68E26017
:104F1000A1609460CC60C7E645F0010742F0010350
:104F20002544676030464D610D61C5F80CE0C5F859
:104F300008E06B60AA50083400F07CF95EE64B682C
:104F4000B2E609F1010919F0030F0CF1080C7FF426
:104F5000BDAE2CE004F108036469A34208BF02302F
:104F60003FF475AE3AE61C461A445168DB6854F8C3
:104F7000085F41F0010151603046EB609D6000F038
:104F800059F93BE65B3041004CE69A0938324FEA6A
:104F9000420CAAE7BC42454B3FF40DAF9C686268E7
:104FA00022F0030267E7D8F8008098457CD110F022
:104FB000030FA8F1080300F1FF30F4D17B6823EA66
:104FC00004037B6064009C423FF6C9AE002C3FF4B2
:104FD000C6AE234248467FF475AE6400234200F11A
:104FE0000400FAD06EE6B0F5AA7F18D8E80B773047
:104FF000410017E64FF48051FAE6D8F804309210D9
:105000004FF0010C0CFA02F21343C8F804300A46C0
:105010007DE70123C9F804304C4600222BE740F21B
:10502000545398421CD8A80C7C304100FAE5103249
:10503000B3E6542A23D81A0B6E324FEA420C54E7D7
:10504000BC68626822F0030215E7CBF30B0000286E
:105050007FF4B8AE4244BB6842F001025A60FCE6FD
:10506000FC217E20DEE501224FF0000AD3E604F1A8
:1050700008013046FFF710FCDAF80010EDE6B2F553
:10508000AA7F04D8DA0B77324FEA420C2DE740F2C0
:1050900054518A4204D89A0C7C324FEA420C24E7DD
:1050A0004FF0FC0C7E2220E77B688BE7B0040020E9
:1050B000830770B4C9B240D0541E002A3FD0037891
:1050C0008B4218BF431C05D11CE0ECB10278013CB7
:1050D0008A4217D013F0030F184603F10103F4D1ED
:1050E000032C14D884B103788B420BD00519431CD0
:1050F00002E002788A4205D0AB42184603F1010370
:10510000F7D1002070BC7047204670BC7047024643
:1051100041EA012646EA0646136810467340A3F1A9
:10512000013525EA030313F0803F02F10402D9D1CF
:10513000043C032C1046EFD8D4E71446D0E71046C1
:10514000E0E700BF844641EA000313F0030349D1BE
:10515000403A23D30B6803604B6843608B688360DD
:10516000CB68C3600B6903614B6943618B698361E1
:10517000CB69C3610B6A03624B6A43628B6A8362C9
:10518000CB6AC3620B6B03634B6B43638B6B8363B1
:10519000CB6BC36340304031403ADBD230320BD36B
:1051A0000B6803604B6843608B688360CB68C360A7
:1051B00010301031103AF3D20C3205D351F8043BC1
:1051C00040F8043B043AF9D2043208D0D2071CBF9D
:1051D00011F8013B00F8013B01D30B8803806046C6
:1051E000704700BF082A13D38B07B1D010F0030318
:1051F000AED0C3F10403D21ADB071CBF11F8013B88
:1052000000F8013BA4D331F8023B20F8023B9FE7B2
:10521000043AD9D3013A11F8013B00F8013BF9D225
:105220000B7803704B7843708B78837060467047BF
:10523000704700BF704700BFC26C70B505460C4692
:1052400052B152F824308BB1196842F82410002270
:1052500018461A61DA6070BD2122042100F046FC74
:10526000E86402460028ECD1002070BD012101FA5B
:1052700004F6721D2846920000F038FC0346002810
:10528000F2D044608660E2E731B1C36C4A6853F8FB
:105290002200086043F82210704700BFF0B50C46AA
:1052A00005460E6983B001F1140E0027DEF80010E8
:1052B000013788B2090C02FB003302FB01F198B2FE
:1052C00001EB134300EB0341BE424EF8041B4FEACF
:1052D0001343EBDC3BB1A268964207DA04EB86028B
:1052E000013653612661204603B0F0BD616828464F
:1052F00001310193FFF7A0FF0746226904F10C0179
:10530000023292000C30FFF71DFFEA6C6168019BCE
:1053100052F82100206042F821403C46DEE700BF01
:10532000030C1B04B3B90004102310F07F4F04BF1B
:105330000002083310F0704F04BF0001043310F076
:10534000404F04BF80000233002807DB420003D433
:10535000202070470023E8E7581C70471846704724
:10536000036813F0070207D0D90720D49A0720D486
:105370009B0803600220704799B209B91B0C1022E8
:1053800013F0FF0F04BF1B0A0832190704BF1B09E3
:105390000432990704BF9B080232D90704D45B0882
:1053A00001D1202070470132036010467047002071
:1053B00070475B0803600120704700BF10B50C46C2
:1053C0000121FFF739FF01224461026110BD00BFD6
:1053D0002DE9F04F0E69156985B0AE420C46914635
:1053E000C0F292802B4635461E46A36805EB0608A0
:1053F00061689845C8BF0131FFF71EFF00F1140A2C
:105400000AEB880BDA45019005D25346002143F898
:10541000041B9B45FBD809F1140909EB860304F131
:105420001402994502EB850C59D2CDF808B0CDF89D
:105430000C809B46904659F8047B1FFA87FEBEF10C
:10544000000F1FD047465646002100E00646304672
:1054500057F8045B3468ABB2A2B20EFB03222D0CEA
:10546000240C0EFB0544531804EB13419AB242EA94
:105470000142BC454FEA114140F8042BE6D8716067
:1054800059F8047C3F0C22D0DAF80030002255464F
:105490001E464046964600E025462C460288360CBD
:1054A00007FB026699B206EB0E0241EA024344F89A
:1054B000043B50F8041B6E68090CB3B207FB0131C2
:1054C000844501EB12434FEA134EE5D86B60CB45A0
:1054D0000AF1040AAFD8DDF808B0DDF80C80B8F1A5
:1054E000000F0BDD5BF8043CABF1040B1BB105E0D6
:1054F0005BF8043D13B9B8F10108F9D10198C0F87F
:10550000108005B0BDE8F08F144689466DE700BFF6
:1055100012F003032DE9F041144607460E462DD143
:10552000A4101CD0BD6C95B3E3074FF0000806D45F
:10553000641014D02868A8B10546E307F8D53846AA
:1055400031462A46FFF744FFB6B17268FB6C64101F
:1055500053F82210316043F822600646EAD1304603
:10556000BDE8F08129462A463846FFF731FF28601A
:10557000C0F800800546E0E70646D9E70B4A013B44
:1055800052F823200023FFF789FE0646C8E70121D1
:105590003846FFF751FE40F271210122002341619C
:1055A00002610546B8640360BEE700BF607600088C
:1055B0002DE9F0470F694FEA62198B684F447D1C53
:1055C0009D420E4614468046496804DD5B009D42BC
:1055D00001F10101FADC4046FFF72EFEB9F1000FA0
:1055E00000F1140109DD00239E460A4601334B45B4
:1055F00042F804EBFAD101EB8301326906F114039E
:1056000003EB820E14F01F0222D0C2F120094FF0EA
:10561000000A1C688C4694404AEA040441F8044B92
:1056200053F8044B9E4524FA09FAF2D8CCF804A0AA
:10563000BAF1000F00D0BD1CD8F84C307268013DA3
:1056400053F822100561316043F82260BDE8F0870D
:10565000043953F8042B9E4541F8042FF9D8EBE7A1
:1056600002690B69D21A13D19B001430143119440A
:1056700010B4034401E098420CD253F8044D51F8A1
:10568000042D9442F7D009D301205DF8044B7047F4
:105690001046704700205DF8044B70474FF0FF3014
:1056A0005DF8044B704700BF2DE9F0470C460546F6
:1056B000114620469146FFF7D3FF061E5DD056DB0C
:1056C0004FF0000A28466168FFF7B6FD09F11403A0
:1056D00080461E462769D9F8102004F1140E75463D
:1056E000C0F80CA000F114040EEB870E03EB820C43
:1056F0004FF0000A55F8042B56F8041B90B200EB4B
:105700000A0388B2090C1B1AC1EB124202EB2342B6
:105710009BB243EA0243B44544F8043B4FEA224AB1
:10572000A946E7D8AE45264615D959F8040B83B2E9
:105730005344000C00EB23419BB243EA0143CE45A6
:1057400044F8043B4FEA214AEFD8ED43754425F075
:10575000030404343444043C23B954F8043D013FA9
:10576000002BFAD04046C8F81070BDE8F0872346F9
:105770004FF0010A4C469946A4E728463146FFF708
:105780005BFD012346610361BDE8F087F0B50121AF
:1057900083B01C46C3F30A551646FFF74DFDC4F30C
:1057A000130407460DB144F48014019406B302A813
:1057B00040F8086DFFF7D4FD002830D19DE80C00BB
:1057C0007A61002B14BF02240124BB613C61D5B96E
:1057D000089A07EB8403A0F2324010601869FFF7C3
:1057E0009FFD099BC0EB44101860384603B0F0BD24
:1057F00001A8FFF7B5FD019B0122144620303A6154
:105800007B61002DE4D0A5F23343089A0344136072
:10581000099BC0F135001860384603B0F0BD019B0C
:10582000C0F12001009A03FA01F10A43C340019339
:105830007A61C6E710B431F0004408D0114BA1F5ED
:1058400080129A4208D804205DF8044B704718B9BA
:1058500002205DF8044B704701F1FF41094B01F54F
:10586000E0019942EFD9B4F5801F01D20320EBE7A4
:10587000054B9C4201D00020E6E7B0FA80F04009D9
:10588000E2E700BFFFFFDF7F0000F07F38B5074C85
:105890000023054608462360FAF7E8FF431C00D0C2
:1058A00038BD2368002BFBD02B6038BD28090020B1
:1058B00010B50C46B1F90E1000F034FC002803DBE3
:1058C000236D0344236510BDA38923F48053A38172
:1058D00010BD00BF2DE9F0410C4689891D46CB055E
:1058E0001646074606D5B4F90E100022022300F032
:1058F000A1FBA18921F48051A1813846B4F90E1091
:1059000032462B46BDE8F04100F08AB810B50C468F
:10591000B1F90E1000F08EFBA389421C0EBF23F4D8
:10592000805343F480532065A38110BDB1F90E105C
:1059300000F00CB920F0030110F00300C0F10000EA
:1059400051F8043B00F1040C4FEACC0C6FF000025C
:105950001CBF22FA0CF213434FF0010C4CEA0C2C42
:105960004CEA0C4CA3EB0C0222EA030212EACC1222
:1059700004BF51F8043B0430F4D0C2F1000102EA44
:105980000102B2FA82F2C2F11F0200EBD2007047AC
:105990004B6E2DE9F0479C040F4692462BD5936839
:1059A000126833B3804602F1080919E96000B608AD
:1059B00017D0043D002401E0A64210D0404655F81F
:1059C000041F3A4600F06EF9431C04F10104F3D1C0
:1059D0000023CAF80830CAF80430BDE8F087DAF8C6
:1059E0000830A3EB8603CAF8083009F10809002B38
:1059F000DBD10020ECE700F07BF90023CAF8083087
:105A0000CAF80430BDE8F087936810B41BB15DF8A4
:105A1000044BFFF7BDBF184653605DF8044B704759
:105A200070B5084C06460025084611461A46256002
:105A3000FAF78EFF431C00D070BD2368002BFBD00B
:105A4000336070BD280900202DE9F047254C06463B
:105A500025688846D5F8484192469946C4B360689F
:105A60001F2817DC411C76B104EB8003C3F888A023
:105A7000D4F88851012282401543022EC4F888517F
:105A8000C3F808911ED0831C6160002044F8238075
:105A9000BDE8F087144B03B34FF4C870FFF77AF8F2
:105AA0000446D0B1D5F84831002784E8880038464C
:105AB000C5F848410121C4F88871C4F88C71002EE2
:105AC000E1D0D1E7D4F88C311A43C4F88C21DAE75D
:105AD00005F5A674C5F84841C1E74FF0FF30BDE8B1
